{
  "contractName": "LandContract",
  "abi": [
    {
      "constant": true,
      "inputs": [
        {
          "name": "",
          "type": "address"
        }
      ],
      "name": "balances",
      "outputs": [
        {
          "name": "",
          "type": "uint256"
        }
      ],
      "payable": false,
      "stateMutability": "view",
      "type": "function"
    },
    {
      "constant": true,
      "inputs": [
        {
          "name": "",
          "type": "uint256"
        }
      ],
      "name": "plots",
      "outputs": [
        {
          "name": "owner",
          "type": "address"
        },
        {
          "name": "forSale",
          "type": "bool"
        },
        {
          "name": "price",
          "type": "uint256"
        }
      ],
      "payable": false,
      "stateMutability": "view",
      "type": "function"
    },
    {
      "inputs": [],
      "payable": false,
      "stateMutability": "nonpayable",
      "type": "constructor"
    },
    {
      "anonymous": false,
      "inputs": [
        {
          "indexed": false,
          "name": "index",
          "type": "uint256"
        }
      ],
      "name": "PlotOwnerChanged",
      "type": "event"
    },
    {
      "anonymous": false,
      "inputs": [
        {
          "indexed": false,
          "name": "index",
          "type": "uint256"
        },
        {
          "indexed": false,
          "name": "price",
          "type": "uint256"
        }
      ],
      "name": "PlotPriceChanged",
      "type": "event"
    },
    {
      "anonymous": false,
      "inputs": [
        {
          "indexed": false,
          "name": "index",
          "type": "uint256"
        },
        {
          "indexed": false,
          "name": "price",
          "type": "uint256"
        },
        {
          "indexed": false,
          "name": "forSale",
          "type": "bool"
        }
      ],
      "name": "PlotAvailabilityChanged",
      "type": "event"
    },
    {
      "constant": false,
      "inputs": [
        {
          "name": "index",
          "type": "uint256"
        },
        {
          "name": "price",
          "type": "uint256"
        }
      ],
      "name": "putPlotUpForSale",
      "outputs": [],
      "payable": false,
      "stateMutability": "nonpayable",
      "type": "function"
    },
    {
      "constant": false,
      "inputs": [
        {
          "name": "index",
          "type": "uint256"
        }
      ],
      "name": "takeOffMarket",
      "outputs": [],
      "payable": false,
      "stateMutability": "nonpayable",
      "type": "function"
    },
    {
      "constant": true,
      "inputs": [],
      "name": "getPlots",
      "outputs": [
        {
          "name": "",
          "type": "address[]"
        },
        {
          "name": "",
          "type": "bool[]"
        },
        {
          "name": "",
          "type": "uint256[]"
        }
      ],
      "payable": false,
      "stateMutability": "view",
      "type": "function"
    },
    {
      "constant": false,
      "inputs": [
        {
          "name": "index",
          "type": "uint256"
        }
      ],
      "name": "buyPlot",
      "outputs": [],
      "payable": true,
      "stateMutability": "payable",
      "type": "function"
    },
    {
      "constant": false,
      "inputs": [],
      "name": "withdrawFunds",
      "outputs": [],
      "payable": false,
      "stateMutability": "nonpayable",
      "type": "function"
    },
    {
      "constant": false,
      "inputs": [],
      "name": "destroy",
      "outputs": [],
      "payable": true,
      "stateMutability": "payable",
      "type": "function"
    }
  ],
  "bytecode": "0x60806040523480156200001157600080fd5b50336000806101000a81548173ffffffffffffffffffffffffffffffffffffffff021916908373ffffffffffffffffffffffffffffffffffffffff160217905550610fa060026000600c811015156200006657fe5b6002020160010181905550600160026000600c811015156200008457fe5b6002020160000160146101000a81548160ff021916908315150217905550610fa060026001600c81101515620000b657fe5b6002020160010181905550600160026001600c81101515620000d457fe5b6002020160000160146101000a81548160ff021916908315150217905550610fa0600280600c811015156200010557fe5b60020201600101819055506001600280600c811015156200012257fe5b6002020160000160146101000a81548160ff021916908315150217905550610fa060026003600c811015156200015457fe5b6002020160010181905550600160026003600c811015156200017257fe5b6002020160000160146101000a81548160ff021916908315150217905550610fa060026004600c81101515620001a457fe5b6002020160010181905550600160026004600c81101515620001c257fe5b6002020160000160146101000a81548160ff021916908315150217905550610fa060026005600c81101515620001f457fe5b6002020160010181905550600160026005600c811015156200021257fe5b6002020160000160146101000a81548160ff021916908315150217905550610fa060026006600c811015156200024457fe5b6002020160010181905550600160026006600c811015156200026257fe5b6002020160000160146101000a81548160ff021916908315150217905550610fa060026007600c811015156200029457fe5b6002020160010181905550600160026007600c81101515620002b257fe5b6002020160000160146101000a81548160ff021916908315150217905550610fa060026008600c81101515620002e457fe5b6002020160010181905550600160026008600c811015156200030257fe5b6002020160000160146101000a81548160ff021916908315150217905550610fa060026009600c811015156200033457fe5b6002020160010181905550600160026009600c811015156200035257fe5b6002020160000160146101000a81548160ff021916908315150217905550610fa06002600a600c811015156200038457fe5b600202016001018190555060016002600a600c81101515620003a257fe5b6002020160000160146101000a81548160ff021916908315150217905550610fa06002600b600c81101515620003d457fe5b600202016001018190555060016002600b600c81101515620003f257fe5b6002020160000160146101000a81548160ff021916908315150217905550610b0c80620004206000396000f30060806040526004361061008e576000357c0100000000000000000000000000000000000000000000000000000000900463ffffffff16806324600fc31461009357806327e235e3146100aa57806361bf49ee146101015780637b1949d21461018057806383197ef0146101a0578063d1311446146101aa578063d81595f1146101d7578063f9cf80a91461020e575b600080fd5b34801561009f57600080fd5b506100a861030a565b005b3480156100b657600080fd5b506100eb600480360381019080803573ffffffffffffffffffffffffffffffffffffffff1690602001909291905050506103ea565b6040518082815260200191505060405180910390f35b34801561010d57600080fd5b5061012c60048036038101908080359060200190929190505050610402565b604051808473ffffffffffffffffffffffffffffffffffffffff1673ffffffffffffffffffffffffffffffffffffffff16815260200183151515158152602001828152602001935050505060405180910390f35b61019e6004803603810190808035906020019092919050505061045e565b005b6101a86106c1565b005b3480156101b657600080fd5b506101d560048036038101908080359060200190929190505050610756565b005b3480156101e357600080fd5b5061020c600480360381019080803590602001909291908035906020019092919050505061083c565b005b34801561021a57600080fd5b50610223610934565b60405180806020018060200180602001848103845287818151815260200191508051906020019060200280838360005b8381101561026e578082015181840152602081019050610253565b50505050905001848103835286818151815260200191508051906020019060200280838360005b838110156102b0578082015181840152602081019050610295565b50505050905001848103825285818151815260200191508051906020019060200280838360005b838110156102f25780820151818401526020810190506102d7565b50505050905001965050505050505060405180910390f35b600080339150600160008373ffffffffffffffffffffffffffffffffffffffff1673ffffffffffffffffffffffffffffffffffffffff16815260200190815260200160002054905060008111151561036157600080fd5b6000600160008473ffffffffffffffffffffffffffffffffffffffff1673ffffffffffffffffffffffffffffffffffffffff168152602001908152602001600020819055508173ffffffffffffffffffffffffffffffffffffffff166108fc829081150290604051600060405180830381858888f1935050505015156103e657600080fd5b5050565b60016020528060005260406000206000915090505481565b600281600c8110151561041157fe5b600202016000915090508060000160009054906101000a900473ffffffffffffffffffffffffffffffffffffffff16908060000160149054906101000a900460ff16908060010154905083565b6000600282600c8110151561046f57fe5b6002020190508060000160009054906101000a900473ffffffffffffffffffffffffffffffffffffffff1673ffffffffffffffffffffffffffffffffffffffff163373ffffffffffffffffffffffffffffffffffffffff16141580156104e357508060000160149054906101000a900460ff165b80156104f3575080600101543410155b15156104fe57600080fd5b60008160000160009054906101000a900473ffffffffffffffffffffffffffffffffffffffff1673ffffffffffffffffffffffffffffffffffffffff1614156105b45734600160008060009054906101000a900473ffffffffffffffffffffffffffffffffffffffff1673ffffffffffffffffffffffffffffffffffffffff1673ffffffffffffffffffffffffffffffffffffffff16815260200190815260200160002060008282540192505081905550610626565b34600160008360000160009054906101000a900473ffffffffffffffffffffffffffffffffffffffff1673ffffffffffffffffffffffffffffffffffffffff1673ffffffffffffffffffffffffffffffffffffffff168152602001908152602001600020600082825401925050819055505b338160000160006101000a81548173ffffffffffffffffffffffffffffffffffffffff021916908373ffffffffffffffffffffffffffffffffffffffff16021790555060008160000160146101000a81548160ff0219169083151502179055507fdfae03cf228ff8c45c20fc02b731bb43373364bd428f52e24885f609814ce497826040518082815260200191505060405180910390a15050565b6000809054906101000a900473ffffffffffffffffffffffffffffffffffffffff1673ffffffffffffffffffffffffffffffffffffffff163373ffffffffffffffffffffffffffffffffffffffff1614151561071c57600080fd5b6000809054906101000a900473ffffffffffffffffffffffffffffffffffffffff1673ffffffffffffffffffffffffffffffffffffffff16ff5b6000600282600c8110151561076757fe5b6002020190508060000160009054906101000a900473ffffffffffffffffffffffffffffffffffffffff1673ffffffffffffffffffffffffffffffffffffffff163373ffffffffffffffffffffffffffffffffffffffff161415156107cb57600080fd5b60008160000160146101000a81548160ff0219169083151502179055507ff8d85ddec75c998a4715c6f8d537607faa56efa42937f3ed1e18eb6ab0ab4af382826001015460006040518084815260200183815260200182151515158152602001935050505060405180910390a15050565b6000600283600c8110151561084d57fe5b6002020190508060000160009054906101000a900473ffffffffffffffffffffffffffffffffffffffff1673ffffffffffffffffffffffffffffffffffffffff163373ffffffffffffffffffffffffffffffffffffffff161480156108b25750600082115b15156108bd57600080fd5b60018160000160146101000a81548160ff0219169083151502179055508181600101819055507ff8d85ddec75c998a4715c6f8d537607faa56efa42937f3ed1e18eb6ab0ab4af3838360016040518084815260200183815260200182151515158152602001935050505060405180910390a1505050565b606080606080606080600080600c6040519080825280602002602001820160405280156109705781602001602082028038833980820191505090505b509450600c6040519080825280602002602001820160405280156109a35781602001602082028038833980820191505090505b509350600c6040519080825280602002602001820160405280156109d65781602001602082028038833980820191505090505b509250600091505b600c821015610acd57600282600c811015156109f657fe5b6002020190508060000160009054906101000a900473ffffffffffffffffffffffffffffffffffffffff168583815181101515610a2f57fe5b9060200190602002019073ffffffffffffffffffffffffffffffffffffffff16908173ffffffffffffffffffffffffffffffffffffffff168152505080600101548383815181101515610a7e57fe5b90602001906020020181815250508060000160149054906101000a900460ff168483815181101515610aac57fe5b906020019060200201901515908115158152505081806001019250506109de565b84848497509750975050505050509091925600a165627a7a7230582066a769b53f25d6dc0ab5c8ae6e8649454444e104a59dacabffa7ce8a63dabb470029",
  "source": "pragma solidity ^0.4.11;\n\ncontract LandContract {\n    address owner;\n    mapping (address => uint) public balances;\n    \n    struct Plot {\n        address owner;\n        bool forSale;\n        uint price;\n    }\n    \n    Plot[12] public plots;\n    \n    event PlotOwnerChanged(\n        uint index\n    );\n    \n    event PlotPriceChanged(\n        uint index,\n        uint price\n    );\n    \n    event PlotAvailabilityChanged(\n        uint index,\n        uint price,\n        bool forSale\n    );\n    \n    constructor() public {\n        owner = msg.sender;\n        plots[0].price = 4000;\n        plots[0].forSale = true;\n        plots[1].price = 4000;\n        plots[1].forSale = true;\n        plots[2].price = 4000;\n        plots[2].forSale = true;\n        plots[3].price = 4000;\n        plots[3].forSale = true;\n        plots[4].price = 4000;\n        plots[4].forSale = true;\n        plots[5].price = 4000;\n        plots[5].forSale = true;\n        plots[6].price = 4000;\n        plots[6].forSale = true;\n        plots[7].price = 4000;\n        plots[7].forSale = true;\n        plots[8].price = 4000;\n        plots[8].forSale = true;\n        plots[9].price = 4000;\n        plots[9].forSale = true;\n        plots[10].price = 4000;\n        plots[10].forSale = true;\n        plots[11].price = 4000;\n        plots[11].forSale = true;\n        \n    }\n    \n    function putPlotUpForSale(uint index, uint price) public {\n        Plot storage plot = plots[index];\n        \n        require(msg.sender == plot.owner && price > 0);\n        \n        plot.forSale = true;\n        plot.price = price;\n        emit PlotAvailabilityChanged(index, price, true);\n    }\n    \n    function takeOffMarket(uint index) public {\n        Plot storage plot = plots[index];\n        \n        require(msg.sender == plot.owner);\n        \n        plot.forSale = false;\n        emit PlotAvailabilityChanged(index, plot.price, false);\n    }\n    \n    function getPlots() public view returns(address[], bool[], uint[]) {\n        address[] memory addrs = new address[](12);\n        bool[] memory available = new bool[](12);\n        uint[] memory price = new uint[](12);\n        \n        for (uint i = 0; i < 12; i++) {\n            Plot storage plot = plots[i];\n            addrs[i] = plot.owner;\n            price[i] = plot.price;\n            available[i] = plot.forSale;\n        }\n        \n        return (addrs, available, price);\n    }\n    \n    function buyPlot(uint index) public payable {\n        Plot storage plot = plots[index];\n        \n        require(msg.sender != plot.owner && plot.forSale && msg.value >= plot.price);\n        \n        if(plot.owner == 0x0) {\n            balances[owner] += msg.value;\n        }else {\n            balances[plot.owner] += msg.value;\n        }\n        \n        plot.owner = msg.sender;\n        plot.forSale = false;\n        \n        emit PlotOwnerChanged(index);\n    }\n    \n    function withdrawFunds() public {\n        address payee = msg.sender;\n          uint payment = balances[payee];\n    \n          require(payment > 0);\n    \n          balances[payee] = 0;\n          require(payee.send(payment));\n    }\n    \n    \n    function destroy() payable public {\n        require(msg.sender == owner);\n        selfdestruct(owner);\n    }\n}",
  "sourcePath": "/home/phan_duong_pha/Documents/tieuluan/LD/contracts/LandContract.sol",
  "compiler": {
    "name": "solc",
    "version": "0.4.24+commit.e67f0147.Emscripten.clang"
  },
  "schemaVersion": "2.0.1",
  "updatedAt": "2018-12-20T03:12:16.294Z"
}